:020000040000FA
:10000000200700207D01000085010000870100001D
:10001000890100008B0100008D010000000000003C
:100020000000000000000000000000008F01000040
:100030009101000000000000930100009501000004
:100040009701000097010000970100009701000050
:100050009701000097010000970100009701000040
:1000600097010000970100000000000097010000C8
:100070009701000097010000970100009701000020
:100080009701000097010000970100009701000010
:100090009701000097010000970100009701000000
:1000A00097010000970100009701000097010000F0
:1000B00097010000970100009701000097010000E0
:1000C00097010000970100009701000097010000D0
:1000D0009701000097010000970100000000000058
:1000E00000F002F800F03AF80AA090E8000C824410
:1000F0008344AAF10107DA4501D100F02FF8AFF2ED
:10010000090EBAE80F0013F0010F18BFFB1A43F0F5
:10011000010318471803000038030000103A24BFF9
:1001200078C878C1FAD8520724BF30C830C144BF5C
:1001300004680C607047000000230024002500269E
:10014000103A28BF78C1FBD8520728BF30C148BF3A
:100150000B6070471FB51FBD10B510BD00F082F8D1
:100160001146FFF7F7FF00F0C9F800F0A0F803B45C
:10017000FFF7F2FF03BC00F0A7F800000948804732
:1001800009480047FEE7FEE7FEE7FEE7FEE7FEE779
:10019000FEE7FEE7FEE7FEE704480549054A064B91
:1001A00070470000D9020000E1000000200100209B
:1001B00020070020200300202003002010B5431C4E
:1001C00002E010F8011B71B18107FAD14FF0013242
:1001D00002C88C1A8C4314EAC211F9D0C01A0A065C
:1001E00003D0C01E10BDC01A10BD0A0401D0801E6D
:1001F00010BD0902FCD0401E10BD10B5203AC0F061
:100200000B80B1E81850203AA0E81850B1E8185017
:10021000A0E81850BFF4F5AF5FEA027C24BFB1E854
:100220001850A0E8185044BF18C918C0BDE81040C5
:100230005FEA827C24BF51F8043B40F8043B08BFCE
:100240007047D20728BF31F8023B48BF11F8012B95
:1002500028BF20F8023B48BF00F8012B70477047C9
:1002600070477047754600F02BF8AE4605006946AA
:10027000534620F00700854618B020B5FFF78CFFE5
:10028000BDE820404FF000064FF000074FF0000897
:100290004FF0000B21F00701AC46ACE8C009ACE818
:1002A000C009ACE8C009ACE8C0098D46704710B57C
:1002B0000446AFF300802046BDE81040FFF757BF6B
:1002C00000487047C000002001491820ABBEFEE77F
:1002D00026000200704700000020054908800549FB
:1002E0000880054908800349888088857047000098
:1002F00088250040002000404424004086B00024AF
:10030000002500BF142230A101A8FFF776FF0020CE
:1003100032490968088040F2F7303149096808809D
:1003200000203049096808802F49096808802F4952
:10033000096808802E49096808704FF410402D495B
:100340000968088002202C490968088049F25C107D
:100350002A49096808800320294909680870002093
:100360002849096808704FF40031274800F058F810
:10037000032024490968087010202449096808707E
:1003800001A8FFF71BFF451C00BF0DE0002020491E
:10039000087001A8005D1F490968087000BF1C486B
:1003A00000780028FBD0641CAC42EFD30AE0102098
:1003B000194909680870002401E000BF641C17484F
:1003C0008442FAD3F3E7000048656C6C6F20554116
:1003D000525420576F726C64210A00000C000020F8
:1003E0002000002028000020180000201C00002011
:1003F000BC0000202C000020B8000020B400002029
:10040000A40000209C00002000E100E0300000205B
:1004100000000020980000204C000020801A0600F8
:1004200003B50020009801600CBD00004C040000E2
:1004300000000020C00000001C0100000C050000AE
:10044000C00000206006000038010000000000002D
:100450008025004084250040882500408C250040F0
:100460009825004000200040042000402C2000403F
:10047000102400404424004000600040046000401C
:10048000086000400C6000401460004018600040AC
:100490001C6000402060004024600040306000404C
:1004A00034600040386000403C60004044600040E0
:1004B000486000404C600040506000405460004084
:1004C0006060004064600040686000406C60004014
:1004D00074600040786000407C60004080600040B4
:1004E000846000400050004004500040085000402C
:1004F0000C50004010500040145000401850004074
:0C050000245000402850004030500040C3
:040000050000017D79
:00000001FF
