:020000040000FA
:10000000200700207D01000085010000870100001D
:10001000890100008B0100008D010000000000003C
:100020000000000000000000000000008F01000040
:100030009101000000000000930100009501000004
:100040009701000097010000970100009701000050
:100050009701000097010000970100009701000040
:1000600097010000970100000000000097010000C8
:100070009701000097010000970100009701000020
:100080009701000097010000970100009701000010
:100090009701000097010000970100009701000000
:1000A00097010000970100009701000097010000F0
:1000B00097010000970100009701000097010000E0
:1000C00097010000970100009701000097010000D0
:1000D0009701000097010000970100000000000058
:1000E00000F002F800F03AF80AA090E8000C824410
:1000F0008344AAF10107DA4501D100F02FF8AFF2ED
:10010000090EBAE80F0013F0010F18BFFB1A43F0F5
:1001100001031847C4060000E4060000103A24BF9B
:1001200078C878C1FAD8520724BF30C830C144BF5C
:1001300004680C607047000000230024002500269E
:10014000103A28BF78C1FBD8520728BF30C148BF3A
:100150000B6070471FB51FBD10B510BD00F031F822
:100160001146FFF7F7FF00F0E9F800F04FF803B48D
:10017000FFF7F2FF03BC00F057F800000948804782
:1001800009480047FEE7FEE7FEE7FEE7FEE7FEE779
:10019000FEE7FEE7FEE7FEE704480549054A064B91
:1001A0007047000039020000E1000000200100203B
:1001B0002007002020030020200300207047704704
:1001C0007047754600F02CF8AE4605006946534668
:1001D00020F00700854618B020B5FFF7DDFFBDE829
:1001E00020404FF000064FF000074FF000084FF09E
:1001F000000B21F00701AC46ACE8C009ACE8C0092F
:10020000ACE8C009ACE8C0098D46704710B504469B
:10021000AFF300802046BDE81040FFF7A8BF000004
:1002200000487047BC00002001491820ABBEFEE723
:10023000260002007047000000200549088005499B
:100240000880054908800349888088857047000038
:100250008825004000200040442400400021084A36
:100260001268117801F0010104E0054A1268117862
:1002700001F001010129F8D1024A12681078704793
:10028000A80000209400002070B50546002422E05C
:10029000FFF7E4FF2855285D0A2802D0285D0D28C5
:1002A00008D10D2000F068FA0A2000F065FA00205D
:1002B000285511E0285D7F2802D0285D082806D146
:1002C000002C08DD06A000F077FA641E03E0285D2C
:1002D00000F052FA641CDBE700BF012070BD000093
:1002E000082008000346002223E013F8011B01B98F
:1002F00020E01007020E302906DB392904DCA1F1C9
:1003000030001044C2B214E0412906DB462904DC67
:10031000A1F137001044C2B20BE0612906DB662967
:1003200004DCA1F157001044C2B202E04FF0FF30EC
:100330007047DAE700BF1046FAE7000094B00020EB
:1003400026490968088040F2F73025490968088085
:100350000020244909680880234909680880234946
:10036000096808802249096808704FF41040214943
:1003700009680880022020490968088049F25C1059
:100380001E490968088003201D490968087024E097
:100390001CA000F011FA6846FFF776FF9DF80040B8
:1003A0006D2C01D1254607E00A2C01D1722503E00E
:1003B0006846FFF797FFC5B200208DF80000012DB9
:1003C00002D06D2D07D103E011A000F0F5F903E094
:1003D00000F024F800E000BF00BFD9E708000020CB
:1003E0001C00002024000020140000201800002021
:1003F000B800002028000020B4000020B000002039
:10040000A00000204C6F7665495249535D00000002
:1004100050574D20546573740A00000010B518A0A1
:1004200000F0CAF926A000F0C7F935A000F0C4F921
:1004300043A000F0C1F922A000F0BEF950A000F0E6
:10044000BBF95FA000F0B8F96DA000F0B5F91CA0F1
:1004500000F0B2F97AA000F0AFF919A000F0ACF901
:1004600007A000F0A9F986A000F0A6F992A000F07C
:10047000A3F9A1A000F0A0F9AFA000F09DF910BD74
:100480002A2A2A2A2A2A2A2A2A2A2A2A2A2A2A2ACC
:100490002A2A2A2A2A2A2A2A2A2A2A2A2A2A2A2ABC
:1004A0002A2A2A2A2A2A2A2A2A2A2A2A2A2A2A2AAC
:1004B0002A2A2A2A2A2A2A2A2A2A2A2A2A0A000010
:1004C0002A2A202020202020202020202020202018
:1004D000202020202020202020202020202020201C
:1004E000202020202020202020202020202020200C
:1004F000202020202020202020202020200A000052
:100500002A2A2020204E6F7465203A2020202020A7
:1005100020202020202020202020202020202020DB
:1005200020202020202020202020202020202020CB
:10053000202020202020202020202020200A000011
:100540002A2A202020414475434D33363020455619
:100550004D20626F61726420546573742050726F15
:100560006772616D20202020202020202020202064
:1005700020202020202020202020200A0000000011
:100580002A2A205573616765203A202020202020E8
:10059000202020202020202020202020202020205B
:1005A000202020202020202020202020202020204B
:1005B000202020202020202020202020200A000091
:1005C0002A2A204C6F76654A6F6E6753755D736596
:1005D0007420616464722076616C202020202020C9
:1005E000202020202020202020202020202020200B
:1005F000202020202020202020202020200A000051
:100600002A2A204C6F76654A6F6E6753755D676561
:10061000742061646472202020202020202020206B
:1006200020202020202020202020202020202020CA
:10063000202020202020202020202020200A000010
:100640002A2A202020202020202020202020202096
:10065000202020202020202020323031332C203137
:10066000302C20323320204279204C696D204A6F93
:100670006E6720537520202020202020200A0000B3
:100680002A2020202020202020202020312E202041
:1006900050574D20546573742020202020202020A6
:1006A000202020202020202020202020202020204A
:1006B00020202020202A0A002A2A20202020202052
:1006C000202020202020202020202020202020202A
:1006D000202020202020202020202020202020201A
:1006E000202020202020202020202020202020200A
:1006F000202020202A0A0000202020202020202046
:100700002020202020A2D1206D2E20204D61696E56
:10071000204D656E7520646973706C6179202020AE
:1007200020202020202020202020202020202020C9
:1007300020202020200A00002A2A2A2A2A2A2A2ABF
:100740002A2A2A2A2A2A2A2A2A2A2A2A2A2A2A2A09
:100750002A2A2A2A2A2A2A2A2A2A2A2A2A2A2A2AF9
:100760002A2A2A2A2A2A2A2A2A2A2A2A2A2A2A2AE9
:100770002A2A2A0A0A00000010B504460A2C0BD1C6
:1007800000BF0B4800F023F8C0F340100028F8D059
:100790000A2008490968087000BF054800F017F8EA
:1007A000C0F340100028F8D002480068047010BD63
:1007B000145000409400002010B5044603E0207857
:1007C000FFF7DAFF641C20780028F8D110BD01B5CE
:1007D00000210099086808BDF8070000000000200B
:1007E000BC0000001C010000B4080000BC00002098
:1007F0006406000038010000802500408425004088
:10080000882500408C2500409825004000200040AD
:10081000042000402C2000401024004044240040CC
:100820000060004004600040086000400C60004030
:1008300014600040186000401C60004020600040D0
:100840002460004030600040346000403860004068
:100850003C60004044600040486000404C60004004
:1008600050600040546000406060004064600040A0
:10087000686000406C600040746000407860004038
:100880007C60004080600040846000400050004078
:1008900004500040085000400C50004010500040F0
:1008A0001450004018500040245000402850004090
:0408B0003050004084
:040000050000017D79
:00000001FF
