:020000040000FA
:10000000200700207D01000085010000870100001D
:10001000890100008B0100008D010000000000003C
:100020000000000000000000000000008F01000040
:100030009101000000000000930100009501000004
:100040009701000097010000970100009701000050
:100050009701000097010000970100009701000040
:1000600097010000970100000000000097010000C8
:100070009701000097010000970100009701000020
:100080009701000097010000970100009701000010
:100090009701000097010000970100009701000000
:1000A00097010000970100009701000097010000F0
:1000B00097010000970100009701000097010000E0
:1000C00097010000970100009701000097010000D0
:1000D0009701000097010000970100000000000058
:1000E00000F002F800F03AF80AA090E8000C824410
:1000F0008344AAF10107DA4501D100F02FF8AFF2ED
:10010000090EBAE80F0013F0010F18BFFB1A43F0F5
:1001100001031847F802000018030000103A24BF3A
:1001200078C878C1FAD8520724BF30C830C144BF5C
:1001300004680C607047000000230024002500269E
:10014000103A28BF78C1FBD8520728BF30C148BF3A
:100150000B6070471FB51FBD10B510BD00F082F8D1
:100160001146FFF7F7FF00F0C9F800F0A0F803B45C
:10017000FFF7F2FF03BC00F0A7F800000948804732
:1001800009480047FEE7FEE7FEE7FEE7FEE7FEE779
:10019000FEE7FEE7FEE7FEE704480549054A064B91
:1001A00070470000D9020000E1000000200100209B
:1001B00020070020200300202003002010B5431C4E
:1001C00002E010F8011B71B18107FAD14FF0013242
:1001D00002C88C1A8C4314EAC211F9D0C01A0A065C
:1001E00003D0C01E10BDC01A10BD0A0401D0801E6D
:1001F00010BD0902FCD0401E10BD10B5203AC0F061
:100200000B80B1E81850203AA0E81850B1E8185017
:10021000A0E81850BFF4F5AF5FEA027C24BFB1E854
:100220001850A0E8185044BF18C918C0BDE81040C5
:100230005FEA827C24BF51F8043B40F8043B08BFCE
:100240007047D20728BF31F8023B48BF11F8012B95
:1002500028BF20F8023B48BF00F8012B70477047C9
:1002600070477047754600F02BF8AE4605006946AA
:10027000534620F00700854618B020B5FFF78CFFE5
:10028000BDE820404FF000064FF000074FF0000897
:100290004FF0000B21F00701AC46ACE8C009ACE818
:1002A000C009ACE8C009ACE8C0098D46704710B57C
:1002B0000446AFF300802046BDE81040FFF757BF6B
:1002C00000487047BC00002001491820ABBEFEE783
:1002D00026000200704700000020054908800549FB
:1002E0000880054908800349888088857047000098
:1002F00088250040002000404424004086B00024AF
:100300000026002514222DA101A8FFF776FF00206A
:100310002F490968088040F2F7302E4909680880A3
:1003200000202D49096808802C49096808802C495B
:10033000096808802B49096808703C202A49096827
:100340000880022029490968088049F25C10284980
:10035000096808800320274909680870002022499D
:1003600009680880102024490968087001A8FFF76F
:1003700025FF461C00BF12E0204800680578C5F341
:10038000401504E01D4800680578C5F34015012DAF
:10039000F8D101A8005D1A4909680870641CB442CC
:1003A000EAD30AE01020174909680870002401E028
:1003B00000BF641C14488442FAD3F3E748656C6CB0
:1003C0006F205541525420576F726C642100000019
:1003D000080000201C000020240000201400002041
:1003E00018000020B800002028000020B4000020E1
:1003F000B0000020A00000202C000020A800002059
:100400009400002048000020801A06002C04000000
:1004100000000020BC0000001C010000E8040000F7
:10042000BC00002064060000380100008025004068
:1004300084250040882500408C25004098250040F8
:1004400000200040042000402C20004010240040E8
:100450004424004000600040046000400860004008
:100460000C60004014600040186000401C600040B8
:100470002060004024600040306000403460004054
:10048000386000403C6000404460004048600040EC
:100490004C6000405060004054600040606000408C
:1004A00064600040686000406C6000407460004020
:1004B000786000407C6000408060004084600040C4
:1004C0000050004004500040085000400C500040D4
:1004D000105000401450004018500040245000407C
:0804E00028500040305000409C
:040000050000017D79
:00000001FF
