:020000040000FA
:10000000200700208D0100009501000097010000ED
:10001000990100009B0100009D010000000000000C
:100020000000000000000000000000009F01000030
:10003000A101000000000000A3010000A5010000D4
:10004000A7010000A7010000A7010000A701000010
:10005000A7010000A7010000A7010000A701000000
:10006000A7010000A701000000000000A701000098
:10007000A7010000A7010000A7010000A7010000E0
:10008000A7010000A7010000A7010000A7010000D0
:10009000A7010000A7010000A7010000A7010000C0
:1000A000A7010000A7010000A7010000A7010000B0
:1000B000A7010000A7010000A7010000A7010000A0
:1000C000A7010000A7010000A7010000A701000090
:1000D000A7010000A7010000A70100000000000028
:1000E00000F002F800F043F80AA090E8000C824407
:1000F0008344AAF10107DA4501D100F038F8AFF2E4
:10010000090EBAE80F0013F0010F18BFFB1A43F0F5
:10011000010318475C1100007C110000103A24BF55
:1001200078C878C1FAD8520724BF30C830C144BF5C
:1001300004680C607047000000230024002500269E
:10014000103A28BF78C1FBD8520728BF30C148BF3A
:100150000B6070471FB500F013F904000020002168
:1001600000F086FE401C60601FBD10B510BD00F0A1
:100170005AF91146FFF7EEFF00F0C2FB00F086F9D6
:1001800003B4FFF7F2FF03BC00F0CAF90948804747
:1001900009480047FEE7FEE7FEE7FEE7FEE7FEE769
:1001A000FEE7FEE7FEE7FEE704480549054A064B81
:1001B00070470000E9070000E10000002001002076
:1001C00020070020200300202003002010B5044653
:1001D00000F08EF80068005DC00602D504F1200032
:1001E00010BD204610BD70B5064600F089F80468C1
:1001F000054630460A22002100F086F82C6070BDCA
:10020000401ECAB210F8011F8A4202D00029F9D15B
:100210000020704740EA0103024630B59B0710D129
:100220004FF0013400E008C208C91D1B9D4315EAC8
:10023000C41FF8D013F0FF0102F8011B0DD01B0AF8
:10024000F8E711F8013B002B02F8013B05D011F84B
:10025000013B002B02F8013BF3D130BD10B5431C2C
:1002600002E010F8011B71B18107FAD14FF00132A1
:1002700002C88C1A8C4314EAC211F9D0C01A0A06BB
:1002800003D0C01E10BDC01A10BD0A0401D0801ECC
:1002900010BD0902FCD0401E10BD4FF0000200B599
:1002A000134694469646203922BFA0E80C50A0E899
:1002B0000C50B1F12001BFF4F7AF090728BFA0E847
:1002C0000C5048BF0CC05DF804EB890028BF40F813
:1002D000042B08BF704748BF20F8022B11F0804F55
:1002E00018BF00F8012B7047704770477047000037
:1002F00010B500F045F8001D10BD00BF750B0000E3
:1003000000487047C00000202DE9F04791460F4695
:1003100080460446002614F8015B2DB1FFF7E8FF84
:100320000068405DC007F6D12B2D02D02D2D18D0CE
:10033000641E4A463946204600F026F827B139683F
:10034000A14201D1C7F800804FF0020471050BD51E
:100350004042002803DDFFF7D3FF0460A007BDE89B
:10036000F08746F48066E4E70028F8DAFFF7C8FF74
:1003700004606FF00040F2E700487047C0000020C2
:1003800000487047E00000202DE9F05F82461546E6
:100390008B4600270AF10104B9460078302801D0C5
:1003A0009DB113E014F8010B0127782803D05828D9
:1003B00001D045B10AE00DB1102D07D1002714F886
:1003C000010B102502E0082500E00A250026B046B2
:1003D0000EE005FB080005FB06F101271FFA80F877
:1003E00001EB1046B6F5803F00D3B94614F8010B77
:1003F000294600F03DF80028EBDABBF1000F05D0EC
:100400000FB1641E00E05446CBF80040B9F1000F74
:1004100006D0FFF775FF02210160C81EBDE8F09FFE
:1004200048EA0640FAE77546FFF7A6FFAE46050024
:100430006946534620F00700854618B020B5FFF7FF
:10044000B3FEBDE820404FF000064FF000074FF02C
:1004500000084FF0000B21F00701AC46ACE8C009E2
:10046000ACE8C009ACE8C009ACE8C0098D467047EB
:100470003A2800D2303820F02002412A01D3A2F1DC
:100480003700884201D34FF0FF30704710B5044663
:10049000AFF300802046BDE81040FFF771BE0000BA
:1004A0004FF0013C50F8042B51F8043B9A4221D103
:1004B000A2EB0C03934313EACC1317D150F8042B8F
:1004C00051F8043B9A4215D1A2EB0C03934313EA73
:1004D000CC130BD150F8042B51F8043B9A4209D1AC
:1004E000A2EB0C03934313EACC13DBD04FF00000D4
:1004F000704700BFD01A01BAB1FA81F101F01801BA
:1005000022FA01F0CB40C1F12001DBB2C0B2C01A27
:100510002CFA01F3D11A914311EAC311E6D17047C5
:1005200001491820ABBEFEE726000200704700001C
:100530002DE9F04107460D4600243E46AD0800BFB8
:1005400016E004F0070018B931460DA000F068FB72
:1005500056F8048B04F00700072804D141460AA08E
:1005600000F05EFB03E0414609A000F059FB641C6B
:10057000AC42E6D305A000F053FBBDE8F0810000DB
:100580003078257820202000307825780A00000077
:1005900030782578200000002DE9FC4707464FF011
:1005A0004008002001900090202600253146384662
:1005B000FFF726FE0546A878FFF708FEC6B2782E9C
:1005C0001CD100240DE0E81C005D202804D0E81CAC
:1005D000005D01A9085503E0002001A9085502E0CB
:1005E000641C082CEFDB00BF01A800F09FFB8146D4
:1005F000E81C011901A8FFF70DFE1BE000240DE027
:10060000681C005D202804D0681C005D01A9085505
:1006100003E0002001A9085502E0641C082CEFDB70
:1006200000BF01A800F082FB8146681C011901A8E7
:10063000FFF7F0FD2026314601A8FFF7E1FD054652
:10064000A878FFF7C3FDC6B2782E1AD1002410E0B7
:10065000E81C005D202807D0E81C005D20B1E81CE4
:10066000005D0DF8040003E000200DF8040002E036
:10067000641C082CECDB00BF684600F057FB80468A
:1006800019E0002410E0681C005D202807D0681CD9
:10069000005D20B1681C005D0DF8040003E000203F
:1006A0000DF8040002E0641C082CECDB00BF684677
:1006B000FFF799FD804641464846FFF739FFBDE800
:1006C000FC872DE9FC47074600200190009020267A
:1006D000002531463846FFF793FD0546A878FFF719
:1006E00075FDC6B2782E1CD100240DE0E81C005D1B
:1006F000202804D0E81C005D01A9085503E0002073
:1007000001A9085502E0641C082CEFDB00BF01A81A
:1007100000F00CFB8146E81C011901A8FFF77AFDE7
:100720001BE000240DE0681C005D202804D0681C3C
:10073000005D01A9085503E0002001A9085502E069
:10074000641C082CEFDB00BF01A800F0EFFA814623
:10075000681C011901A8FFF75DFD2026314601A89C
:10076000FFF74EFD0546A878FFF730FDC6B2782E9C
:100770001AD1002410E0E81C005D202807D0E81CF6
:10078000005D20B1E81C005D0DF8040003E00020CE
:100790000DF8040002E0641C082CECDB00BF684686
:1007A00000F0C4FA804619E0002410E0681C005DE7
:1007B000202807D0681C005D20B1681C005D0DF882
:1007C000040003E000200DF8040002E0641C082C83
:1007D000ECDB00BF6846FFF706FD80464146484611
:1007E00000F041FBBDE8FC87002005490880054971
:1007F0000880054908800349888088857047000083
:100800008825004000200040442400403CB50446B8
:100810000D466B4601AA2946206800F0D4FA0198DB
:10082000206000983CBD00000021064A117000BF06
:10083000044909780029FBD003490878BFF34F8F9A
:1008400070470000BD000020BE00002030B5054606
:10085000002422E0FFF7E8FF2855285D0A2802D08F
:10086000285D0D2808D10D2000F0ECF90A2000F0D9
:10087000E9F90020285511E0285D7F2802D0285D85
:10088000082806D1002C08DD06A000F0FBF9641E44
:1008900003E0285D00F0D6F9641CDBE700BF01200F
:1008A00030BD0000082008000346002223E013F8B2
:1008B000011B01B920E01007020E302906DB39299F
:1008C00004DCA1F130001044C2B214E0412906DB7F
:1008D000462904DCA1F137001044C2B20BE06129C3
:1008E00006DB662904DCA1F157001044C2B202E025
:1008F0004FF0FF307047DAE700BF1046FAE700001C
:1009000094B000203A490968088040F2F73039492C
:100910000968088000203849096808803749096853
:1009200008803749096808803649096808704FF41B
:100930001040354909680880022034490968088058
:1009400049F25C1032490968088000203149096881
:100950000870032030490968087048E02FA000F0B3
:1009600091F96846FFF772FF9DF800406D2C01D1A8
:1009700025462BE00A2C01D1722527E0412C04DB0F
:100980005A2C02DC04F1200004E0672C01D1012084
:1009900000E0002020B16846FFF7FEFD722515E05B
:1009A000412C04DB5A2C02DC04F1200004E0732CFF
:1009B00001D1012000E0002020B16846FFF781FE50
:1009C000722503E06846FFF76FFFC5B200208DF87F
:1009D0000000012D02D06D2D07D103E012A000F020
:1009E00051F903E000F026F800E000BF00BFB5E7D2
:1009F000080000201C00002024000020140000201B
:100A000018000020B800002028000020B4000020BA
:100A1000B000002098000020A00000204C6F7665F8
:100A2000495249535D00000050574D20546573747E
:100A30000A00000010B518A000F024F9264800F0C4
:100A400021F9264800F01EF9254800F01BF922483C
:100A500000F018F9234800F015F9234800F012F9C6
:100A6000224800F00FF91C4800F00CF9204800F073
:100A700009F9194800F006F907A000F003F91D482C
:100A800000F000F91C4800F0FDF81C4800F0FAF8EE
:100A90001BA000F0F7F810BD2A2A2A2A2A2A2A2A9F
:100AA0002A2A2A2A2A2A2A2A2A2A2A2A2A2A2A2AA6
:100AB0002A2A2A2A2A2A2A2A2A2A2A2A2A2A2A2A96
:100AC0002A2A2A2A2A2A2A2A2A2A2A2A2A2A2A2A86
:100AD0002A2A2A2A2A0A00009C0E0000080F000079
:100AE000F0100000700F000034100000D80F00005C
:100AF000441100000C120000A01100009010000032
:100B00002A2A2A2A2A2A2A2A2A2A2A2A2A2A2A2A45
:100B10002A2A2A2A2A2A2A2A2A2A2A2A2A2A2A2A35
:100B20002A2A2A2A2A2A2A2A2A2A2A2A2A2A2A2A25
:100B30002A2A2A2A2A2A2A2A2A2A2A0A0A000000D3
:100B40002DE9FF4791B0054617461E46DDF8748033
:100B50000FF27C094FF0080A08F0400008B10FF2CC
:100B60009809B61E0024129828B930222046641C29
:100B70000DF800200DE009E0394612A8FFF746FE07
:100B800019F800202046641C0DF800201298002857
:100B9000F2D104E030222046641C0DF80020BAEBAC
:100BA0000400F7D103E01DF8040005F8010B201E36
:100BB000A4F10104F7DC02E0202005F8010B301E4F
:100BC000A6F10106F8DC284615B0BDE8F087000064
:100BD00030313233343536373839616263646566B3
:100BE0006768696A6B6C6D6E6F707172737475761D
:100BF0007778797A00000000303132333435363777
:100C000038394142434445464748494A4B4C4D4E8A
:100C10004F505152535455565758595A00000000DE
:100C20000FB400B5C1B043A840906846409A4299BD
:100C300000F033F800204090684600F023F841B0FF
:100C40005DF814FB0A280BD100210C4A11700A210F
:100C50000B4A1268117000BF084909780029FBD0BF
:100C60000021064A117006490968087000BF03494F
:100C700009780029FBD0BFF34F8F7047BC000020DC
:100C80009400002000B5034603E01878FFF7DAFF70
:100C90005B1C18780028F8D100BD2DE9F74781B01A
:100CA00006460D464FF0FF3A344637E028782528AF
:100CB00003D0287804F8010B2FE04FF000086D1CDA
:100CC0004FF010092878252804D0582806D0782815
:100CD0000AD106E0252004F8010B1EE048F0400888
:100CE00000BF4FF010090AE0252004F8010B287816
:100CF00018B1287804F8010B00E06D1E0DE000BF6C
:100D0000039880C8039053464A4639462046CDF89A
:100D10000080FFF715FF044600BF6D1C28780028EF
:100D2000C4D12070A01B04B0BDE8F087F0B589B035
:100D30000546202101A8FFF7B0FA2846FFF78EFAF2
:100D40000746082F00D90827002617E0287840F02A
:100D5000200028702878412807DB28785738791E2A
:100D6000891B01AA42F8210006E028783038791E54
:100D7000891B01AA42F821006D1C761CBE42E5D3F6
:100D800000244FF08051089801FB00440911079896
:100D900001FB00440911069801FB00440911059864
:100DA00001FB00440911049801FB00440911039858
:100DB00001FB00441021029801FB00440198044407
:100DC000204609B0F0BD2DE9F0434FF00008C146C0
:100DD000C3F80090C2F8009009B9BDE8F0838142E1
:100DE00001D91860F9E7814204D14FF00109C2F836
:100DF0000090F2E7202409E0C70FD3F8009047EAFB
:100E00004909C3F8009080464000641ED3F8009062
:100E10008945F1D34046D3F800904FEA5909C3F809
:100E20000090641C4FF0000C19E0C70FD3F800903D
:100E300047EA4909C3F80090D3F80090A9EB0105EF
:100E40004FF0010989EAD5764000D2F8009046EAD1
:100E50004909C2F8009006B11D600CF1010CA445CF
:100E6000E3D300BFB9E703B50020009801600CBDD3
:100E700010B500290AD00878002807D00548784422
:100E8000FFF70EFB002801D0002010BD0248784477
:100E900010BD0000120400000A0400002A2A2020CD
:100EA0002020202020202020202020202020202042
:100EB0002020202020202020202020202020202032
:100EC0002020202020202020202020202020202022
:100ED0002020202020202020202020202020202012
:100EE0002020202020202020202020202020202002
:100EF00020202020202020202020202020202020F2
:100F000020202020200A00002A2A2020204E6F7452
:100F100065203A2020202020202020202020202072
:100F200020202020202020202020202020202020C1
:100F300020202020202020202020202020202020B1
:100F400020202020202020202020202020202020A1
:100F50002020202020202020202020202020202091
:100F600020202020202020202020202020200A00B7
:100F70002A2A205573616765203A202020202020EE
:100F80002020202020202020202020202020202061
:100F90002020202020202020202020202020202051
:100FA0002020202020202020202020202020202041
:100FB0002020202020202020202020202020202031
:100FC0002020202020202020202020202020202021
:100FD000202020200A0000002A2A204C6F76654A33
:100FE0006F6E6753755D676574206164647220205D
:100FF00020202020202020202020202020202020F1
:1010000020202020202020202020202020202020E0
:1010100020202020202020202020202020202020D0
:1010200020202020202020202020202020202020C0
:1010300020200A002A2A204C6F76654A6F6E67537B
:10104000755D73657420616464722076616C202024
:101050002020202020202020202020202020202090
:101060002020202020202020202020202020202080
:101070002020202020202020202020202020202070
:10108000202020202020202020202020200A0000B6
:1010900020202020202020202020202020A2D1201D
:1010A0006D2E20204D61696E204D656E752064693E
:1010B00073706C61792020202020202020202020A7
:1010C0002020202020202020202020202020202020
:1010D0002020202020202020202020202020202010
:1010E0002020202020202020202020200A00000076
:1010F0002A2A202020414475434D3336302045565E
:101100004D20626F61726420546573742050726F59
:101110006772616D202020202020202020202020A8
:1011200020202020202020202020202020202020BF
:101130002020202020202020202020202020200AC5
:10114000000000002A2A202020202020202020200B
:10115000202020202020202020202020203230315C
:10116000332C2031302C20323320204279204C691E
:101170006D204A6F6E67205375202020202020208C
:10118000202020202020202020202020202020205F
:10119000202020202020202020202020200A0000A5
:1011A0002A2A20202020202020202020202020202B
:1011B000202020202020202020202020202020202F
:1011C000202020202020202020202020202020201F
:1011D000202020202020202020202020202020200F
:1011E00020202020202020202020202020202020FF
:1011F00020202020202020202020202020202020EF
:1012000020202020202020202A0A00002A20202020
:101210002020202020202020312E202050574D201B
:10122000546573742020202020202020202020209E
:1012300020202020202020202020202020202020AE
:10124000202020202020202020202020202020209E
:10125000202020202020202020202020202020208E
:101260002020202020202020202020202A0A0000CA
:10127000A013000000000020C00000001C010000BE
:1012800060140000C000002060060000380100006B
:101290001001000043000000F8FFFFFF0040404045
:1012A0004040404040404141414141404040404039
:1012B00040404040404040404040404040050202E5
:1012C00002020202020202020202020202202020A4
:1012D0002020202020202002020202020202909000
:1012E00090909090101010101010101010101010FE
:1012F0001010101010101010020202020202888852
:10130000888888880808080808080808080808085D
:101310000808080808080808020202024000000045
:1013200000000000000000000000000000000000BD
:1013300000000000000000000000000000000000AD
:10134000000000000000000000000000000000009D
:10135000000000000000000000000000000000008D
:10136000000000000000000000000000000000007D
:10137000000000000000000000000000000000006D
:10138000000000000000000000000000000000005D
:10139000000000000000000000000000000000004D
:1013A0008025004084250040882500408C25004091
:1013B0009825004000200040042000402C200040E0
:1013C00010240040442400400060004004600040BD
:1013D000086000400C60004014600040186000404D
:1013E0001C600040206000402460004030600040ED
:1013F00034600040386000403C6000404460004081
:10140000486000404C600040506000405460004024
:101410006060004064600040686000406C600040B4
:1014200074600040786000407C6000408060004054
:1014300084600040005000400450004008500040CC
:101440000C50004010500040145000401850004014
:101450002450004028500040305000400000000060
:040000050000018D69
:00000001FF
